:020000040800F2
:1000000000C000209D3C00080D3400080F3400089B
:1000100011340008133400081534000800000000F3
:10002000000000000000000000000000173400087D
:1000300019340008000000001B3400081D340008BB
:10004000E53C0008E53C0008E53C0008E53C00080C
:10005000E53C0008E53C0008E53C0008E53C0008FC
:10006000E53C0008E53C0008E53C0008E53C0008EC
:100070002534000835340008E53C0008E53C00085C
:100080004534000855340008E53C0008E53C00080C
:10009000E53C0008E53C0008E53C0008E53C0008BC
:1000A000E53C0008E53C0008E53C0008E53C0008AC
:1000B000E53C0008E53C000865340008E53C000824
:1000C000E53C0008E53C0008E53C0008E53C00088C
:1000D000E53C0008E53C000875340008853400085C
:1000E000E53C0008E53C0008E53C0008E53C00086C
:1000F000E53C0008E53C0008E53C0008E53C00085C
:10010000E53C0008E53C0008E53C0008E53C00084B
:10011000E53C0008E53C0008E53C0008E53C00083B
:10012000E53C0008E53C0008E53C0008E53C00082B
:1001300000000000000000000000000000000000BF
:1001400000000000000000000000000000000000AF
:10015000000000000000000000000000000000009F
:10016000000000000000000000000000000000008F
:10017000000000000000000000000000000000007F
:10018000000000000000000000000000000000006F
:10019000000000000000000000000000000000005F
:1001A000000000000000000000000000000000004F
:1001B000000000000000000000000000000000003F
:1001C000000000000000000000000000000000002F
:1001D000000000000000000000000000000000001F
:0401E0005FF8E0F1F3
:1001E80010B5054C237833B9044B13B10448AFF369
:1001F80000800123237010BDC0090020000000000A
:1002080058C2000808B5034B1BB103490348AFF3B4
:10021800008008BD00000000C409002058C2000882
:100228004FF0FF0C1CEAD0521EBF1CEAD15392EAD1
:100238000C0F93EA0C0F6FD01A4480EA010C4002AD
:1002480018BF5FEA41211ED04FF0006343EA501007
:1002580043EA5111A0FB01310CF00040B1F5000F49
:100268003EBF490041EAD3715B0040EA010062F1F8
:100278007F02FD2A1DD8B3F1004F40EBC25008BFE2
:1002880020F00100704790F0000F0CF0004C08BF00
:1002980049024CEA502040EA51207F3AC2BFD2F1CD
:1002A800FF0340EAC250704740F400004FF00003DB
:1002B800013A5DDC12F1190FDCBF00F00040704715
:1002C800C2F10002410021FA02F1C2F1200200FA53
:1002D80002FC5FEA310040F1000053EA4C0308BF1A
:1002E80020EADC70704792F0000F00F0004C02BF6B
:1002F800400010F4000F013AF9D040EA0C0093F0E6
:10030800000F01F0004C02BF490011F4000F013B3F
:10031800F9D041EA0C018FE70CEAD15392EA0C0FAD
:1003280018BF93EA0C0F0AD030F0004C18BF31F018
:10033800004CD8D180EA010000F00040704790F0EE
:10034800000F17BF90F0004F084691F0000F91F092
:10035800004F14D092EA0C0F01D142020FD193EA58
:100368000C0F03D14B0218BF084608D180EA0100E0
:1003780000F0004040F0FE4040F40000704740F0BC
:10038800FE4040F44000704781F0004102E000BFA9
:1003980083F0004330B54FEA41044FEA430594EA3D
:1003A800050F08BF90EA020F1FBF54EA000C55EA78
:1003B800020C7FEA645C7FEA655C00F0E2804FEA49
:1003C8005454D4EB5555B8BF6D420CDD2C4480EA2B
:1003D800020281EA030382EA000083EA010180EA5B
:1003E800020281EA0303362D88BF30BD11F0004FA9
:1003F8004FEA01314FF4801C4CEA113102D04042DF
:1004080061EB410113F0004F4FEA03334CEA133319
:1004180002D0524263EB430394EA050F00F0A78031
:10042800A4F10104D5F1200E0DDB02FA0EFC22FA2C
:1004380005F2801841F1000103FA0EF2801843FA20
:1004480005F359410EE0A5F120050EF1200E012A11
:1004580003FA0EFC28BF4CF0020C43FA05F3C0184F
:1004680051EBE37101F0004507D54FF0000EDCF1C8
:10047800000C7EEB00006EEB0101B1F5801F1BD371
:10048800B1F5001F0CD349085FEA30004FEA3C0C75
:1004980004F101044FEA445212F5800F80F09A806B
:1004A800BCF1004F08BF5FEA500C50F1000041EB6F
:1004B800045141EA050130BD5FEA4C0C404141EB73
:1004C8000101013C28BFB1F5801FE9D291F0000F6E
:1004D80004BF01460020B1FA81F308BF2033A3F11D
:1004E8000B03B3F120020CDA0C3208DD02F1140C14
:1004F800C2F10C0201FA0CF021FA02F10CE002F14F
:100508001402D8BFC2F1200C01FA02F120FA0CFC47
:10051800DCBF41EA0C019040E41AA2BF01EB045190
:10052800294330BD6FEA04041F3C1CDA0C340EDC8E
:1005380004F11404C4F1200220FA04F001FA02F3D1
:1005480040EA030021FA04F345EA030130BDC4F18F
:100558000C04C4F1200220FA02F001FA04F340EA84
:100568000300294630BD21FA04F0294630BD94F035
:10057800000F83F4801306BF81F480110134013D1C
:100588004EE77FEA645C18BF7FEA655C29D094EA8D
:10059800050F08BF90EA020F05D054EA000C04BF0B
:1005A8001946104630BD91EA030F1EBF00210020F6
:1005B80030BD5FEA545C05D14000494128BF41F095
:1005C800004130BD14F580043CBF01F5801130BDF9
:1005D80001F0004545F0FE4141F470014FF0000084
:1005E80030BD7FEA645C1ABF194610467FEA655C35
:1005F8001CBF0B46024650EA013406BF52EA0335D7
:1006080091EA030F41F4002130BD00BF90F0000FC4
:1006180004BF0021704730B54FF4806404F1320400
:100628004FF000054FF0000150E700BF90F0000FB9
:1006380004BF0021704730B54FF4806404F13204E0
:1006480010F0004548BF40424FF000013EE700BFB0
:1006580042004FEAE2014FEA31014FEA02701FBF40
:1006680012F07F4393F07F4F81F06051704732F072
:100678007F4208BF704793F07F4F04BF41F40021C9
:10068800704730B54FF4607401F0004521F0004127
:100698001CE700BF50EA010208BF704730B54FF0B1
:1006A80000050AE050EA010208BF704730B511F0B2
:1006B800004502D5404261EB41014FF4806404F1EA
:1006C80032045FEA915C3FF4D8AE4FF003025FEA70
:1006D800DC0C18BF03325FEADC0C18BF033202EBF4
:1006E800DC02C2F1200300FA03FC20FA02F001FA4E
:1006F80003FE40EA0E0021FA02F11444BDE600BFF1
:1007080070B54FF0FF0C4CF4E06C1CEA11541DBF9F
:100718001CEA135594EA0C0F95EA0C0F00F0DEF86A
:100728002C4481EA030621EA4C5123EA4C5350EA4F
:10073800013518BF52EA033541F4801143F48013A0
:1007480038D0A0FB02CE4FF00005E1FB02E506F031
:100758000042E0FB03E54FF00006E1FB03569CF086
:10076800000F18BF4EF0010EA4F1FF04B6F5007F8C
:1007780064F5407404D25FEA4E0E6D4146EB0606FE
:1007880042EAC62141EA55514FEAC52040EA5E5087
:100798004FEACE2EB4F1FD0C88BFBCF5E06F1ED831
:1007A800BEF1004F08BF5FEA500E50F1000041EB68
:1007B800045170BD06F0004646EA010140EA020015
:1007C80081EA0301B4EB5C04C2BFD4EB0C0541EA37
:1007D800045170BD41F480114FF0000E013C00F34C
:1007E800AB8014F1360FDEBF002001F0004170BD70
:1007F800C4F10004203C35DA0C341BDC04F1140489
:10080800C4F1200500FA05F320FA04F001FA05F214
:1008180040EA020001F0004221F0004110EBD370E1
:1008280021FA04F642EB06015EEA430E08BF20EA0D
:10083800D37070BDC4F10C04C4F1200500FA04F3B0
:1008480020FA05F001FA04F240EA020001F0004142
:1008580010EBD37041F100015EEA430E08BF20EAB5
:10086800D37070BDC4F1200500FA05F24EEA020EFD
:1008780020FA04F301FA05F243EA020321FA04F02C
:1008880001F0004121FA04F220EA020000EBD370E3
:100898005EEA430E08BF20EAD37070BD94F0000FE3
:1008A8000FD101F00046400041EB010111F4801F17
:1008B80008BF013CF7D041EA060195F0000F18BFC8
:1008C800704703F00046520043EB030313F4801F04
:1008D80008BF013DF7D043EA0603704794EA0C0FBE
:1008E8000CEA135518BF95EA0C0F0CD050EA4106D4
:1008F80018BF52EA4306D1D181EA030101F0004151
:100908004FF0000070BD50EA410606BF1046194678
:1009180052EA430619D094EA0C0F02D150EA013684
:1009280013D195EA0C0F05D152EA03361CBF1046C5
:1009380019460AD181EA030101F0004141F0FE4164
:1009480041F470014FF0000070BD41F0FE4141F4E8
:10095800780170BD70B54FF0FF0C4CF4E06C1CEAE8
:1009680011541DBF1CEA135594EA0C0F95EA0C0F9D
:1009780000F0A7F8A4EB050481EA030E52EA033558
:100988004FEA013100F088804FEA03334FF0805579
:1009980045EA131343EA12634FEA022245EA1115A6
:1009A80045EA10654FEA00260EF000419D4208BF57
:1009B800964244F1FD0404F5407402D25B084FEA04
:1009C8003202B61A65EB03055B084FEA32024FF4B0
:1009D80080104FF4002CB6EB020E75EB030E22BF0D
:1009E800B61A754640EA0C005B084FEA3202B6EBCD
:1009F800020E75EB030E22BFB61A754640EA5C007C
:100A08005B084FEA3202B6EB020E75EB030E22BF0B
:100A1800B61A754640EA9C005B084FEA3202B6EB0C
:100A2800020E75EB030E22BFB61A754640EADC00CB
:100A380055EA060E18D04FEA051545EA16754FEA2D
:100A480006164FEAC30343EA52734FEAC2025FEA4B
:100A58001C1CC0D111F4801F0BD141EA00014FF0DA
:100A680000004FF0004CB6E711F4801F04BF0143AB
:100A78000020B4F1FD0C88BFBCF5E06F3FF6AFAEC7
:100A8800B5EB030C04BFB6EB020C5FEA500C50F157
:100A9800000041EB045170BD0EF0004E4EEA1131DA
:100AA80014EB5C04C2BFD4EB0C0541EA045170BDE1
:100AB80041F480114FF0000E013C90E645EA060E25
:100AC8008DE60CEA135594EA0C0F08BF95EA0C0F53
:100AD8003FF43BAF94EA0C0F0AD150EA01347FF49B
:100AE80034AF95EA0C0F7FF425AF104619462CE772
:100AF80095EA0C0F06D152EA03353FF4FDAE1046D5
:100B0800194622E750EA410618BF52EA43067FF425
:100B1800C5AE50EA41047FF40DAF52EA43057FF4B5
:100B2800EBAE12E74FEA410212F5001215D211D5C9
:100B38006FF47873B3EB625212D94FEAC12343F0D2
:100B4800004343EA505311F0004F23FA02F018BF54
:100B5800404270474FF00000704750EA013005D11D
:100B680011F0004008BF6FF0004070474FF00000E0
:100B7800704700BF80F0004002E000BF81F00041F4
:100B880042001FBF5FEA410392EA030F7FEA226C2B
:100B98007FEA236C6AD04FEA1262D2EB1363C1BFBB
:100BA800D218414048404140B8BF5B42192B88BF2A
:100BB800704710F0004F40F4000020F07F4018BF4D
:100BC800404211F0004F41F4000121F07F4118BF6D
:100BD800494292EA030F3FD0A2F1010241FA03FC15
:100BE80010EB0C00C3F1200301FA03F100F00043FD
:100BF80002D5494260EB4000B0F5000F13D3B0F1C5
:100C0800807F06D340084FEA310102F10102FE2A33
:100C180051D2B1F1004F40EBC25008BF20F00100A3
:100C280040EA03007047490040EB0000013A28BF42
:100C3800B0F5000FEDD2B0FA80FCACF1080CB2EBC5
:100C48000C0200FA0CF0AABF00EBC2505242184343
:100C5800BCBFD0401843704792F0000F81F40001E8
:100C680006BF80F400000132013BB5E74FEA4103BB
:100C78007FEA226C18BF7FEA236C21D092EA030F27
:100C880004D092F0000F08BF0846704790EA010FA1
:100C98001CBF0020704712F07F4F04D1400028BFCE
:100CA80040F00040704712F100723CBF00F50000B0
:100CB800704700F0004343F0FE4040F400007047E6
:100CC8007FEA226216BF08467FEA23630146420292
:100CD80006BF5FEA412390EA010F40F480007047A5
:100CE8004FF0000304E000BF10F0004348BF40424B
:100CF8005FEA000C08BF704743F0964301464FF087
:100D080000001CE050EA010208BF70474FF00003E2
:100D18000AE000BF50EA010208BF704711F0004323
:100D280002D5404261EB41015FEA010C02BF8446F3
:100D38000146002043F0B64308BFA3F18053A3F552
:100D48000003BCFA8CF2083AA3EBC25310DB01FA99
:100D580002FC634400FA02FCC2F12002BCF1004F1D
:100D680020FA02F243EB020008BF20F001007047AE
:100D780002F1200201FA02FCC2F1200250EA4C0002
:100D880021FA02F243EB020008BF20EADC70704748
:100D98004FEA4002B2F1FE4F0FD34FF09E03B3EB80
:100DA80012620DD94FEA002343F0004310F0004FC0
:100DB80023FA02F018BF404270474FF00000704716
:100DC80012F1610F01D1420205D110F0004008BFB5
:100DD8006FF0004070474FF00000704703685A00FA
:100DE8004CBF43F0004323F000431844704700BF52
:100DF8002DE9F84339B34F1E044615463E464FF0D9
:100E0800000808EB060101EBD171491004EBC10998
:100E18004846FFF7E3FF0346C80008308F422044E6
:100E28000BD0AB420BD8FFF7D9FF0138A84201F12C
:100E38000108E6D34846BDE8F883AB42FAD98845AD
:100E480001D04E1EDDE74FF000094846BDE8F883A3
:100E5800012807D0022807D0044B00280CBF1846E9
:100E6800002070470248704702487047491500083B
:100E78004D1500085115000830B5244B044683B0C1
:100E88008D1E3BB3284601A9AFF30080E8B1019954
:100E98002A46FFF7ADFF0146B8B1FFF79FFF4B6841
:100EA800A064012B2ED0002B27DB081DFFF796FF2F
:100EB8000023C4E913030368002B12DBFFF78EFF3E
:100EC80003460020236103B030BD002309202361BD
:100ED80003B030BD0E4B0F491846C91AC91001910D
:100EE800D6E7C3F30360FFF7B3FF0028034614BF38
:100EF80000200920236103B030BD0123081DC4E987
:100F08001303D8E7002305202361DCE70000000075
:100F180084CD0008CCCE0008036810B5DA07044673
:100F280006D49B0700F1480009D500F05DFC236852
:100F3800590709D51A070ED5DB0613D510BD00F0E1
:100F48004BFC23685907F5D404F1D00000F054FC99
:100F580023681A07F0D404F5A87000F055FC23683C
:100F6800DB06EBD404F5E870BDE8104000F090BC57
:100F7800092070470346006800B11844704700BF55
:100F8800704700BF70B504460E462046316CFFF727
:100F980073FF054698B9D6F840C03246214601206D
:100FA8002369C4F814C098470828EED0072806D14A
:100FB8002846316CFFF7E4FF301D00F001FC05F016
:100FC80043F900BF2DE9F0474FF0000AADF5727DF7
:100FD8000DF10C0E01F1040CC768D0F81880064614
:100FE8001446BCE80F00AEE80F00BCE80F00AEE8FE
:100FF8000F00BCE80F00AEE80F009CE80F0002AD40
:101008008EE80F00C5F800A021E02B6C4FF4F072B9
:10101800294673617AA800F06FFE3146504633695D
:101028007AAA9847889C82466C6433463246494679
:101038000120CDE90058B8470446F0B94FF4F072E2
:1010480028467AA900F058FEBAF1080F1BD130469D
:10105800296CFFF711FF04F109095FFA89FA0446C0
:101068000028D2D0A96B3346696432460120CDE905
:1010780000584AF01001B84700B1092420460DF580
:10108800727DBDE8F087BAF1070FF6D12046296CCA
:10109800FFF776FF03A800F093FB00BF406C704792
:1010A800F0B54FF0FF37CB6BF9B00B6401AC01F131
:1010B800040C0E460546BCE80F000FC4BCE80F0040
:1010C8000FC4BCE80F000FC49CE80F0084E80F00B1
:1010D800009706E06A4629462B699847082804467F
:1010E80008D128461099FFF7C7FE0028F2D009203A
:1010F80079B0F0BD6846FFF70FFF062CF7D13146EF
:101108002846FFF73FFF00BF10B414468461DC6B2C
:10111800C16000221C64194610BC53E770B54369CE
:10112800C6680B64AEB90A46036904460D46014613
:1011380002209847072805D008280FD129462046BD
:10114800FFF720FF3046296CFFF71AFF281D00F033
:1011580037FB0122FFF736FF05F076F805F074F843
:10116800C2682AB1D1F83CC00022C1F840C029E7C2
:1011780096E700BF704700BF836801460BB10120A6
:1011880018477047012912D009D873B90F2A0CD80B
:1011980000EB820042681846009B1A6070470339CA
:1011A800012994BF01200220704702207047084699
:1011B800704700BF002300B585B00A4603A9009117
:1011C8001946FFF7DFFF039805B05DF804FB00BF81
:1011D800012912D009D873B90F2A0CD8009900EB4D
:1011E800820209681846516070470339012994BF83
:1011F800012002207047022070470846704700BF50
:10120800002310B584B003AC039200940A46194633
:10121800FFF7DEFF04B010BD70B54FF0FF36D36B9B
:10122800ADF50E7D13640DF15C0E02F1040C05465C
:101238000C46BCE80F00AEE80F00BCE80F00AEE8B3
:101248000F00BCE80F00AEE80F009CE80F008EE826
:101258000F00169612E00C2116A86A46FFF7D0FF79
:10126800214616A8A84778B969460820049B16AAFB
:1012780098470528064608D0092805D068462699C3
:10128800FFF7FAFD0028E6D0092616A8FFF744FE66
:1012980030460DF50E7D70BD2DE9F04F1E46CC6C25
:1012A80089B054F8043B0D46174600F0030806942D
:1012B800002E79D002228DF81C201A0C8DF81D20E2
:1012C8001B04D2B2059304EB82042B6DB8F1020F14
:1012D80008BFAC6B13F001030CD0384605A900F029
:1012E80071FB18B9082009B0BDE8F08F092009B0D2
:1012F800BDE8F08FD4F800A0BAF1000FEDD001934B
:1013080000F008030293022E4AD0B4F800A0B4F803
:1013180002900434AA6C0F21384629F0010B93443B
:10132800FFF748FF834539D82AF001025A44824220
:1013380094BF002001204FEA490303F002030AF09A
:10134800010A43EA0A03012B49D0022B32D0002BB1
:10135800CCD1B8F1000F02D0002840F0CE80043480
:10136800D4F800A0BAF1000FCDD1384605A900F095
:1013780029FB0028BAD1019B002BB3D00F21384696
:10138800FFF718FF0E2102463846FFF739FF3846A7
:101398000F216A4AFFF734FF0720A8E70020CAE7B1
:1013A800D4F804900834B5E71B0205930323ADF87D
:1013B8001C308AE7236823F0004BB8F1000F45D1B1
:1013C80028B1029A002A5CD0BBF1000F74D0002B20
:1013D80000DA04340BF1010B04EB8B04C0E7B8F11D
:1013E800000F19D1B0B163682268991C4FEAD27214
:1013F8003FF47CAF05F158010133049100F091806E
:10140800201DFFF7B7FD04AB01462846AFF3008067
:1014180000285CD10834A3E70D213846D5F8209080
:10142800FFF7C8FE8145F5D1AB6A9C42F2D1204650
:10143800FFF7D4FC0F2102463846FFF7E1FE384695
:101448002A460021FFF7DCFE072050E70D21384629
:10145800D5F82090FFF7AEFE814501D02368B6E7A6
:10146800AB6A9C42FAD104230022C5E90B23E31896
:10147800C5F828B06B632368002B5ADB012301935E
:10148800A8E705F15803CDF80C809146B04604F161
:10149800040A1E460EE050460496FFF76BFD002234
:1014A800014604AB284609F101090AF1040AAFF321
:1014B8000080E8B9D945EED10D213846FFF77AFE0C
:1014C8000346049A0620C5E909242B620FE78146E2
:1014D8000D213846FFF76EFEB9F1020F286225D1BB
:1014E8002B46049A43F82C2F6B620620AC62FEE66A
:1014F80046462368DDF80C8069E72046FFF76EFC56
:1015080002460434AC6328461446AFF30080002832
:101518003FF4ECAE384622460F21FFF771FE072054
:10152800E5E60D213846FFF745FE2862049B6B620D
:10153800DBE70BF1010004EB800079E70000000015
:101548000023A9E60123A7E60223A5E62DE9F04337
:10155800064615461C46C3B0042900F2B880DFE8E9
:1015680001F09C56B62D0300002C40F0B080102AE4
:1015780000F2AD800368D80600F1F18020AF38464C
:1015880000F090F9012438460023B16B04FA03F205
:101598002A4203F1010305D00A4652F804CB11464A
:1015A800C0F800C0042B00F10400EFD13846B16345
:1015B80000F06EF9002043B0BDE8F083032C40F042
:1015C800868094B204EB1243102B4FEA12457ED862
:1015D80003681F0700F1CB8020AF384600F036F9CA
:1015E800B26B07EBC50154B10B4601EBC401D01A2D
:1015F800E4001D5843F8045B8B42FAD12244384674
:10160800B26300F001F9002043B0BDE8F083012C7B
:101618004FEA124895B256D0052C58D108EB050967
:10162800B9F1200F53D8B8F10F0F73D9A946002D7F
:1016380040F08480B36B65B320AF4FF0000907EB2F
:10164800C807043F03EBC50553F8041BAB4247F832
:10165800041FF9D1B9F1000F0FD06F464146102988
:1016680038BF102107EBC101843903EBC90553F8D2
:10167800040BAB4241F8040FF9D1012C7FD0B8F12B
:101688000F0FB56342D9B9F1000F02D0684600F0D8
:10169800B3F8002043B0BDE8F083C4B92346012461
:1016A800826B371DA8B204FA03F101421CBF52F83D
:1016B800041B47F823100133102BF4D115F4005004
:1016C800E7D1B26304E008EB0503102B03D902202D
:1016D80043B0BDE8F083B8F10F0FF8D83368DA07E4
:1016E80006D5304623F0030340F8483B00F078F86D
:1016F80020AF384600F074F8B36B002D9DD11D461D
:1017080004353846B56300F067F8C2E720A800F052
:101718006BF8B8E7B9F1100F3FD9A9F11009336890
:10172800D90708D5304623F0010343F0020340F8F7
:10173800483B00F05DF8B9F1000F31D033685A0723
:101748001FD4B8F10F0F24D96F46C8F110053846D9
:1017580000F056F8002DB36B80DD20AF6FE723F063
:101768001003336006F5E87000F09CF806E723F0F4
:101778000803036000F5A87000F068F82CE720AFB4
:10178800BEE7304623F0040340F8D03B00F038F8B9
:10179800D7E720A800F02CF8D6E74FF00009BEE7FD
:1017A800B8F10F0F3FF646AF20AF384600F020F8EB
:1017B800B36B002D7FF441AF384600F015F868E7A9
:1017C80000F1340191E838009C46A6464CF8045DC7
:1017D80090E8FF0FE54600BD90EC210B704700BF75
:1017E80080EC210B704700BF90EC200B704700BFC6
:1017F80080EC200B704700BFD0EC200B704700BF77
:10180800C0EC200B704700BFF0EC0201F0EC0211B5
:10181800F0EC0221F0EC0231F0EC0241F0EC025164
:10182800F0EC0261F0EC0271F0EC0281F0EC029154
:10183800F0EC02A1F0EC02B1F0EC02C1F0EC02D144
:10184800F0EC02E1F0EC02F1704700BFE0EC0201BD
:10185800E0EC0211E0EC0221E0EC0231E0EC0241A4
:10186800E0EC0251E0EC0261E0EC0271E0EC028194
:10187800E0EC0291E0EC02A1E0EC02B1E0EC02C184
:10188800E0EC02D1E0EC02E1E0EC02F1704700BFCD
:10189800B0FC0181B0FC0191B0FC01A1B0FC01B128
:1018A800704700BFA0FC0181A0FC0191A0FC01A130
:1018B800A0FC01B1704700BFEC4600B52DE900500F
:1018C8002DE9FF1F4FF000032DE90C0001A9FFF7D8
:1018D800E7FBDDF840E012B0704700BFEC4600B50A
:1018E8002DE900502DE9FF1F4FF000032DE90C00F2
:1018F80001A9FFF713FCDDF840E012B0704700BF04
:10190800EC4600B52DE900502DE9FF1F4FF000030C
:101918002DE90C0001A9FFF723FCDDF840E012B027
:10192800704700BFEC4600B52DE900502DE9FF1FB8
:101938004FF000032DE90C0001ABFFF7E5FBDDF8E4
:1019480040E012B0704700BFEC4600B52DE90050EA
:101958002DE9FF1F4FF000032DE90C0001AAFFF746
:101968005BFCDDF840E012B0704700BF027A034626
:101978007AB9427AA2B14FF0030C4168013A427237
:1019880008680A1D5A60020283F808C0000E1A602F
:1019980070470068013A1A7202021A60000E704716
:1019A800B0207047002300B585B003A900910C2230
:1019B8001946FFF7E7FB039805B05DF804FB00BF85
:1019C800F0E700BF2DE9F0434FF0000805460E464A
:1019D80085B03046FFF7CAFFB028044600F0BA8049
:1019E800070620D500F0F003802B4DD0902B36D081
:1019F800A02B60D0B02B73D0C02B00F08A8000F0F1
:101A0800F803D02B0BD100F0070201320523012186
:101A1800284642F40022FFF799FD0028D9D0092072
:101A280005B0BDE8F0838300DBB21F1D00230DF174
:101A38000C0919460D222846CDF80090FFF7A2FBA5
:101A4800039B60064CBFDF1BFF1800230D222846AE
:101A58001946CDF800900397FFF7BAFBB9E700F0F5
:101A68000D030D2BDBD0002303AF194600F00F0246
:101A780000972846FFF786FB00230D2228461946C3
:101A88000097FFF7A5FBA4E73046FFF76FFF240296
:101A98002043B0F5004FC2D0002304011946284660
:101AA800A2B2FFF753FD0028B9D114F4004F18BFB4
:101AB8004FF001088DE7C3434FF47F6203F007033B
:101AC8001A410023010702F47F6248BF42F48042B2
:101AD80028461946FFF73AFD00283FF47AAF9EE7FB
:101AE800B1283CD0B22800F0B080B3284AD000F02A
:101AF800FC03B42B93D0012300F007021A442846B4
:101B0800194642F40022FFF721FD00283FF461AF97
:101B180085E7C6284FD0C72861D000F0F803C02B4E
:101B280070D0C8287CD0C9287FF479AF3046FFF739
:101B38001DFF0523024601212846140302F00F0267
:101B480004F470240A442243FFF700FD00283FF400
:101B580040AF64E7B8F1000F1CD0002060E73046C2
:101B6800FFF704FF024600283FF459AF10F0F003D6
:101B78007FF455AF19462846FFF7E8FC00283FF4E4
:101B880028AF4CE73046FFF7F1FE0123024619461D
:101B98002846D2E703AC43460E2241462846009425
:101BA800FFF7F0FA43460F22284641460094FFF714
:101BB8000FFB404634E73046FFF7D8FE02460323C2
:101BC800140302F00F0204F4702401322846194667
:101BD8002243FFF7BBFC00283FF4FBAE1FE730466B
:101BE800FFF7C4FE024600283FF419AF10F0F003D7
:101BF8007FF415AF04212846FFF7A8FC00283FF41E
:101C0800E8AE0CE7032300F00F020132284619461C
:101C180042F42022FFF79AFC00283FF4DAAEFEE6F1
:101C28003046FFF7A3FE0246012102F0F00402F05D
:101C38000F0210340A440523284642EA0432FFF70B
:101C480085FC00283FF4C5AEE9E600230DF10C0938
:101C58000D2219462846CDF80090FFF793FA304632
:101C6800FFF784FE02064FF002040CD5039B00F038
:101C78007F00A040184403903046FFF777FE030624
:101C880004F10704F2D4039B00F07F02A24003F59D
:101C980001731A440023039228460D221946CDF8F1
:101CA8000090FFF795FA94E60B464FF0030C00B549
:101CB800C26C1846536885B00832029201A91A0E00
:101CC8001B028DF80CC001938DF80D20FFF77AFEEA
:101CD80005B05DF804FB00BF08B5FFF771FE806C26
:101CE80008BD00BF08B5FFF76BFEC06CC3790233AF
:101CF80000EB830008BD00BF844641EA000313F0EF
:101D0800030349D1403A23D30B6803604B6843600F
:101D18008B688360CB68C3600B6903614B6943615F
:101D28008B698361CB69C3610B6A03624B6A436247
:101D38008B6A8362CB6AC3620B6B03634B6B43632F
:101D48008B6B8363CB6BC36340304031403ADBD24B
:101D580030320BD30B6803604B6843608B68836039
:101D6800CB68C36010301031103AF3D20C3205D36F
:101D780051F8043B40F8043B043AF9D2043208D045
:101D8800D2071CBF11F8013B00F8013B01D30B88B7
:101D980003806046704700BF082A13D38B07B1D071
:101DA80010F00303AED0C3F10403D21ADB071CBF43
:101DB80011F8013B00F8013BA4D331F8023B20F8AD
:101DC800023B9FE7043AD9D3013A11F8013B00F8E6
:101DD800013BF9D20B7803704B7843708B78837092
:101DE800604670474FF0FF3C06E000BF4FF0010C23
:101DF80002E000BF4FF0010C4DF804CD4FEA410C52
:101E08007FEA6C5C4FEA430C18BF7FEA6C5C1BD01E
:101E180001B050EA410C0CBF52EA430C91EA030F9F
:101E280002BF90EA020F0020704710F1000F91EAFC
:101E3800030F58BF994208BF90422CBFD8176FEACA
:101E4800E37040F0010070474FEA410C7FEA6C5C98
:101E580002D150EA013C07D14FEA430C7FEA6C5C9F
:101E6800D6D152EA033CD3D05DF8040B704700BFCB
:101E78008446104662468C461946634600E000BF19
:101E880001B5FFF7B7FF002848BF10F1000F01BDEB
:101E98004DF808EDFFF7F4FF0CBF012000205DF8B6
:101EA80008FB00BF4DF808EDFFF7EAFF34BF01203B
:101EB80000205DF808FB00BF4DF808EDFFF7E0FFD4
:101EC80094BF012000205DF808FB00BF4DF808ED25
:101ED800FFF7CEFF94BF012000205DF808FB00BF8C
:101EE8004DF808EDFFF7C4FF34BF012000205DF86E
:101EF80008FB00BF4FEA410C7FEA6C5C02D150EA54
:101F0800013C0AD14FEA430C7FEA6C5C02D152EAE9
:101F1800033C02D14FF0000070474FF001007047BA
:101F280053B94AB9002908BF00281CBF4FF0FF3138
:101F38004FF0FF3000F076B9ADF1080C6DE904CE32
:101F480000F006F8DDF804E0DDE9022304B070478C
:101F58002DE9F047089E0D4604468846002B4DD1D2
:101F68008A42944668D9B2FA82F252B101FA02F36F
:101F7800C2F1200120FA01F10CFA02FC41EA03083F
:101F880094404FEA1C41B8FBF1F71FFA8CFE01FBA5
:101F9800178807FB0EF0230C43EA084398420AD936
:101FA8001CEB030307F1FF3580F01E81984240F2D5
:101FB8001B81023F63441B1AB3FBF1F001FB103392
:101FC80000FB0EFEA4B244EA0344A6450AD91CEB62
:101FD800040400F1FF3380F00981A64540F2068130
:101FE800644402380021A4EB0E0440EA07401EB105
:101FF8000023D440C6E90043BDE8F0878B4208D9E6
:10200800002E00F0EE800021C6E900050846BDE874
:10201800F087B3FA83F100294AD1AB4202D3824256
:1020280000F2FC80841A65EB030301209846002E19
:10203800E2D0C6E90048DFE702B9FFDEB2FA82F271
:10204800002A40F09180A1EB0C0001214FEA1C47C7
:102058001FFA8CFEB0FBF7F307FB1300250C45EACB
:1020680000450EFB03F0A84208D91CEB050503F157
:10207800FF3802D2A84200F2CE8043462D1AB5FBA3
:10208800F7F007FB10550EFB00FEA4B244EA054426
:10209800A64508D91CEB040400F1FF3502D2A64579
:1020A80000F2B6802846A4EB0E0440EA03409EE7FF
:1020B800C1F120078B4022FA07FC4CEA030C25FAF1
:1020C80007FA4FEA1C49BAFBF9F820FA07F309FBAB
:1020D80018AA8D401FFA8CFE1D4300FA01F308FB75
:1020E8000EF02C0C44EA0A44A04202FA01F20BD981
:1020F8001CEB040408F1FF3A80F08880A04240F20B
:102108008580A8F102086444241AB4FBF9F009FB9D
:10211800104400FB0EFEADB245EA0444A64508D9BA
:102128001CEB040400F1FF356CD2A6456AD90238CD
:10213800644440EA0840A0FB0295A4EB0E04AC42BC
:10214800C846AE4656D353D0002E69D0B3EB08022A
:1021580064EB0E0422FA01F304FA07F71F43CC409C
:10216800C6E90074002147E70CFA02FCC2F120011D
:1021780025FA01F34FEA1C4720FA01F195400D4377
:10218800B3FBF7F107FB11331FFA8CFE280C40EA6A
:10219800034001FB0EF3834204FA02F408D91CEB56
:1021A800000001F1FF382FD283422DD90239604453
:1021B800C01AB0FBF7F307FB1300ADB245EA0045C0
:1021C80003FB0EF0A84208D91CEB050503F1FF3804
:1021D80016D2A84214D9023B6544281A43EA0141A1
:1021E80038E73146304607E72F46E4E61846F9E671
:1021F8004B45A9D2B9EB020865EB0C0E0138A3E7F1
:102208004346EAE7284694E74146D1E7D0467BE7CC
:102218006444023847E7023B65442FE7084606E76F
:102228003146E9E6704700BFF8B504460D46234B32
:102238001B68834204D0224B1B6FA34234D0F8BDE5
:10224800204E324620491D4800F054F93378402B7F
:1022580007D01A4E304600F07DF9304600F06BF991
:10226800E9E71A4800F0FEFD194800F0FBFD19489F
:1022780000F0F8FD184800F0F5FD184800F0F2FDF0
:10228800174800F0EFFD0D4E164A1749304600F08A
:1022980031F9164F39460B4800F029FE3A681449BF
:1022A800304600F027F9D4E7054C2946204600F0CF
:1022B8008DFA204600F018FBC1E700BF400A002055
:1022C800BC0B0020880B0020ACC20008DC0A0020F0
:1022D800F80A0020140B0020300B00204C0B0020C3
:1022E800680B0020B4C20008B0C20008000000203B
:1022F800C4C20008624B834200D070472DE9F04108
:1023080088B0604D284600F0C9FB5F4E304600F0AB
:10231800C5FB5E4C204600F0C1FB5D4F384600F01F
:10232800BDFBB7F91C30B7F91E20DFF868810192B0
:102338000093BB69B7F920205749404600F0DAF806
:10234800B6F91C30B6F91E2001920093B369B6F9AC
:1023580020205249404600F0CDF8B5F91C30B5F9B7
:102368001E2001920093AB69B5F920204C494046E4
:1023780000F0C0F8B4F91C30B4F91E2001920093A3
:10238800A369B4F920204749404600F0B3F8464B0A
:102398001B7813B908B0BDE8F0812746434E306872
:1023A800FEF7A2FC06906C4607F10C050FCD0FC492
:1023B80095E8030084E8030097E80E003C4800F025
:1023C80058FDFEF7E5FC0146384600F029FB2E4F84
:1023D8003068FEF789FC06906C4607F10C050FCDB6
:1023E8000FC495E8030084E8030097E80E0031481D
:1023F80000F03FFDFEF7CCFC0146384600F010FB2C
:10240800204F3068FEF770FC06906C4607F10C050B
:102418000FCD0FC495E8030084E8030097E80E0089
:10242800254800F026FDFEF7B3FC0146384600F0CB
:10243800F7FA174C3068FEF757FC06906D4604F122
:102448000C060FCE0FC596E8030085E8030094E854
:102458000E001A4800F00DFDFEF79AFC01462046D2
:1024680000F0DEFAB4F91C30B4F91E200192009392
:10247800A369B4F920201249404600F03BF889E7E7
:10248800B40D00204C0A0020700A0020940A002095
:10249800B80A0020400A0020D0C20008E8C200089C
:1024A800FCC2000814C30008850B002000000020AF
:1024B800140B0020300B00204C0B0020680B002070
:1024C80000C30008012800D070474FF6FF739942F7
:1024D800FAD1044B044A1A60044A5A60044A9A60C2
:1024E800F2E700BF400A0020E40F0020140F00208C
:1024F800880B00200EB470B5C3B0054647AC54F83D
:10250800046B00210291FB2203A803F0CFFE019483
:102518002246314602A803F08DFF02A803F05CFFB3
:10252800FF2382B202A9286803F050FB43B0BDE83C
:10253800704003B0704710B50446322281680068C5
:1025480003F04EFE63681A68136823F004031360EF
:1025580010BD000008B583681A78402A02D0402AC6
:102568004FD008BD59786F29F9D199787029F6D1DB
:10257800D9786529F3D119796E29F0D15A79202AA9
:1025880020D0202AEDD19A79732AEAD1DA79702AF3
:10259800E7D11A7A652AE4D15A7A652AE1D19B7A79
:1025A800642BDED1344800F08AFA344800F087FA08
:1025B800334800F084FA334800F081FA324B0122A4
:1025C8001A70CEE799796129DBD1D9796E29D8D1EA
:1025D800197A6729D5D1597A6C29D2D1997A65297E
:1025E800CFD1254800F06BFA244800F068FA244857
:1025F80000F065FA234800F062FA244B01221A70B1
:10260800AFE75A78632AACD19A786C2AA9D1DA78DC
:102618006F2AA6D11A79732AA3D15A79652AA0D12B
:102628009A79202A14D0202A9BD1DA79732A98D152
:102638001A7A702A95D15A7A652A92D19A7A652A95
:102648008FD1DB7A642B8CD10F4B00221A7088E76C
:10265800D9796129E7D1197A6E29E4D1597A67299C
:10266800E1D1997A6C29DED1D97A6529DBD1074B7A
:1026780000221A7075E700BF700A00204C0A00207B
:10268800B80A0020940A0020850B0020840B002043
:1026980008B54FF6FF710120FFF714FF08BD0000D1
:1026A80010B5A52404705A2444705424847053240B
:1026B800C4702B4CB4F800E0A0F804E0B4F804E0CF
:1026C800A0F806E0B4F808E0A0F808E0B4F80CE0D8
:1026D800A0F80AE0B4F810E0A0F80CE0B4F814E0B0
:1026E800A0F80EE0B4F818E0A0F810E0B4F81CE088
:1026F800A0F812E0B4F820E0A0F814E0B4F824E060
:10270800A0F816E0B4F828E0A0F818E0B4F82CE037
:10271800A0F81AE0B4F830E0A0F81CE0B4F834E00F
:10272800A0F81EE0248F0484152480F82240252474
:1027380080F82340352480F82440452480F825403B
:10274800552480F82640652480F82740752480F8B1
:102758002840852480F82940C2660167836610BD39
:1027680070C2000800B583B003788DF804300B7888
:102778008DF805304B788DF8063001AA0321006FDB
:1027880000F0DBFB03B05DF804FB08B500F11C01A9
:10279800FFF7E8FF08BD000070B50546002410E00B
:1027A80004F1180335F91300FDF740FF0022064B2A
:1027B800FEF7D0F804F12806FEF7B4F925F816005C
:1027C8000134022CECDD70BD0000594010B5044600
:1027D800C26E10786378984200D010BD5278934248
:1027E800FBD1404A206F00F0A8FBE36E9A7894F87A
:1027F80022108A4228D094F823108A4237D094F8BD
:1028080024108A4244D094F825108A4253D094F870
:1028180027108A4227D119785A7842EA0122A4F867
:1028280048209978DA7842EA0122A4F84A201979EE
:102838005A7942EA0122A4F84C209A79DB7943EAD2
:102848000223A4F84E300EE019795A7942EA01229F
:10285800E2869979DA7942EA012222871A7A5B7A42
:1028680043EA022363872046FFF796FFB5E7197905
:102878005A7942EA0122A2879979DA7942EA012251
:10288800E2871A7A5B7A43EA0223A4F84030EAE73F
:1028980019795A7942EA0122A4F842209979DA7919
:1028A80042EA0122A4F844201A7A5B7A43EA022316
:1028B800A4F84630D7E71A79597941EA022109B2D2
:1028C80061859879DA7942EA002212B2A285187AEB
:1028D8005B7A43EA00231BB2E38521866286A386DE
:1028E800C1E700BFDC09002010B5044632220549C3
:1028F800006F03F075FCA36E1A68136823F00403D5
:10290800136010BD880B0020012800D070474FF6D7
:10291800FF739942FAD170B41C4B1D4D5D604FF4A2
:1029280080521A814FF400625A811A49D9600420F2
:102938001861194A5A6101221A70184B184C5C60C8
:102948004FF480761E814FF400765E81D9600C26A4
:102958001E61144E5E611A70134B5D6010251D8157
:1029680020255D81D96000251D61104D5D611A70BB
:102978000F4B5C60188102205881D96008211961C9
:102988000C4959611A7070BC704700BFB80A002022
:1029980000080140440E0020240D0020940A002065
:1029A800000C0140FC0D0020700A0020DC0C002007
:1029B8004C0A00206C0D002010B50446037853B172
:1029C80001220189406801F04DFE0022618960689A
:1029D80001F048FE10BD00220189406801F042FE66
:1029E80001226189606801F03DFEF3E710B50446F5
:1029F800037853B100220189406801F033FE0122B7
:102A08006189606801F02EFE10BD012201894068CD
:102A180001F028FE00226189606801F023FEF3E7D7
:102A280038B505460C1E09DC002C0ADB04BB2B69F3
:102A38005BB9EB681B6800225A6338BDFFF7BCFF1F
:102A4800F4E76442FFF7D2FFF0E7042B06D0082B27
:102A580009D0EB681B6800221A64EEE7EB681B6874
:102A680000229A63E9E7EB681B680022DA63E4E76F
:102A78002B691BB9EB681B685C63DEE7042B05D088
:102A8800082B07D0EB681B681C64D6E7EB681B684B
:102A98009C63D2E7EB681B68DC63CEE7B0F91C20C7
:102AA800C28343691B685B6A1BB283839BB292B281
:102AB8009B1A1BB203848269134483617047002305
:102AC80083618383C38303844269126853627047B6
:102AD80008B54FF6FF710120FFF716FF08BD00008B
:102AE80070B586B0154B9A6942F008029A619B69E5
:102AF80003F008030193019B0023029303930493BB
:102B080005938025029511230393032305930C4C09
:102B180002A9204601F086FC4026029602A920461A
:102B280001F080FC01223146204601F09BFD012284
:102B38002946204601F096FD06B070BD00100240FF
:102B4800000C014010B50B4C01228021204601F0F9
:102B580089FD01224021204601F084FD00228021C8
:102B6800204601F07FFD00224021204601F07AFD39
:102B780010BD00BF000C014010B5084C0022802198
:102B8800204601F06FFD01224021204601F06AFD38
:102B980001228021204601F065FD10BD000C014096
:102BA80070B50646002413E0802141FA04F20F4D67
:102BB8003240284601F056FD01224021284601F006
:102BC80051FD00224021284601F04CFD0134E4B2B9
:102BD800072CE9D9054C01224021204601F042FD8D
:102BE80000224021204601F03DFD70BD000C01404F
:102BF80010B50446FFF7A6FF7820FFF7D1FF0020A5
:102C0800FFF7CEFF2046FFF7CBFFFFF7B5FF10BD5C
:102C180010B50446FFF796FF7820FFF7C1FF402064
:102C2800FFF7BEFF2046FFF7BBFFFFF7A5FF10BD6C
:102C380010B50C4640F0B000FFF7DAFF200940F06D
:102C48001000FFF7D5FF04F00F00FFF7D1FF10BD0C
:102C580038B5002509E00020FFF7DAFF0134E4B2B7
:102C680014F0800FF7D00135EDB2072D05D80021FB
:102C78002846FFF7DDFF0024F2E738BDF8B5154612
:102C8800461E7600F6B24F1EFF00FFB239463046A8
:102C9800FFF7CEFF002409E0A5F120030F4A02EB5D
:102CA8000313185DFFF7B4FF0134E4B2072CF3D91E
:102CB800701C3946C0B2FFF7BBFF00240BE0A5F13A
:102CC800200304F10802054901EB0313985CFFF7A0
:102CD8009FFF0134E4B2072CF1D9F8BD28C30008DE
:102CE8000246012002E002FB00F019464B1E0029B3
:102CF800F9D170472DE9F843804689461E46171ECC
:102D080004DB2B22FFF7BAFF00241FE02D22FFF778
:102D1800B5FF7F42F8E704EB0905EDB2311B013935
:102D28000A20FFF7DDFFB7FBF0F00A4AA2FB0032EA
:102D3800D20802EB8202A0EB42023032691CD2B206
:102D4800C9B24046FFF79AFF0134E4B2B442E2D375
:102D5800BDE8F883CDCCCCCC08B5002204E0013323
:102D6800B3F57A7FFBD30132B2F57A7F01D2002323
:102D7800F6E7FFF7B5FEAE20FFF73AFFD520FFF7DD
:102D880037FF8020FFF734FFA820FFF731FF3F20EF
:102D9800FFF72EFFD320FFF72BFF0020FFF728FFB8
:102DA8004020FFF725FFA120FFF722FFC820FFF7EB
:102DB8001FFFDA20FFF71CFF1220FFF719FF812001
:102DC800FFF716FFCF20FFF713FFD920FFF710FFFB
:102DD800F120FFF70DFFDB20FFF70AFF3020FFF798
:102DE80007FFA420FFF704FFA620FFF701FF8D20AF
:102DF800FFF7FEFE1420FFF7FBFEAF20FFF7F8FEFB
:102E0800FFF726FF08BD0000012800D070474FF6E5
:102E1800FF739942FAD10D4A0023136153619361FC
:102E28000B4A1361536193610A4A136153619361B9
:102E3800094A136153619361084A136153619361AD
:102E4800074A136153619361E0E700BFDC0A002081
:102E5800F80A0020140B0020300B00204C0B002037
:102E6800680B002001230370002343608360C36064
:102E7800704784B0F8B5044607A880E80E00BDF98D
:102E88003C00FDF731FF01461098FDF777FE074635
:102E98006060A168FDF774FE0646A060BDF93A308F
:102EA8000D98C01AFDF720FF0546E06021693846F5
:102EB800FDF7B6F9074661693046FDF7B1F90146F5
:102EC8003846FDF75DFE0646A1692846FDF7A8F9D4
:102ED80001463046FDF754FEBDE8F84004B070479F
:102EE80008B54FF6FF710120FFF78EFF08BD30B41B
:102EF8004FF0000C6546644609E004EB8404303B5F
:102F080003EB440401E02D2B12D00CF1010C10F856
:102F18000C30212B0ED0A3F13002D2B2092AF2D8FC
:102F2800002DEAD004EB8404303BC3EB4404ECE707
:102F38000125EAE70C6030BC704708B58C4611469D
:102F4800FF23624602F042FE08BD0000012800D0BF
:102F5800704708B54FF6FF73994200D008BD034B80
:102F6800034A04490448FFF79BFBF7E7140F0020C6
:102F7800DC0900209C0F0020BC0B002072B6FEE785
:102F880000B591B02822002106A803F08FF900238C
:102F980001930293039304930593012206924FF43D
:102FA800803307930A9202220D920E934FF4E01396
:102FB8000F9306A801F050FC80B90F23019302215A
:102FC8000291002303934FF480620492059301A8B1
:102FD80001F074FE20B911B05DF804FBFFF7CEFFD5
:102FE800FFF7CCFF2DE9F04100F0A0FEFFF7C8FF86
:102FF80000F0F8F800F0C4F800F050F900F0A6FA74
:1030080000F0D8FA00F008FB00F070FB00F0AAFC12
:1030180000F020FD00F060F900F030FB00F034FD16
:103028003D4B3E4A1A6100225A613D4999613D4B28
:103038003D4919613D4959619A613D4B3D491961C5
:103048003D4959619A61DFF8F480404601F0D4FFA8
:103058003B4F384601F0D0FF3A4E304601F0CCFFE6
:10306800394D284601F0C8FF384C204601F0C4FF0E
:103078003C21404602F0AEFB3C21384602F0AAFB58
:103088003C21304602F0A6FB3C21284602F0A2FB78
:103098000021204602F024FB0421204602F020FBF8
:1030A8000821204602F01CFB0C21204602F018FBE8
:1030B800274801F0D7FF2748FFF767FBFFF74CFECB
:1030C800254C26492046FFF715FA2548FFF774FCDA
:1030D8002046FFF730FA0523224AB2F920200121C1
:1030E8000846FFF707FE05231F4AB2F920200121F1
:1030F8000220FFF7FFFD0523194AB2F9202001211C
:103108000320FFF7F7FD0523184AB2F92020012113
:103118000420FFF7EFFDDEE7DC0A0020CDCC4C3FB2
:103128000AD7A33DF80A00209A99593FCDCC0C3F05
:10313800140B00209A99993ECDCCCC3DDC0C002094
:10314800240D00206C0D0020FC0D0020440E0020F2
:10315800B40D0020BC0B0020400A002018C900084C
:10316800B80A0020700A00204C0A0020940A0020A7
:1031780008B54FF6FF710120FFF7E8FE08BD000013
:1031880000B583B0164B5A6942F001025A615B6977
:1031980003F001030193019B002211460C2000F06B
:1031A800FBFD0C2000F030FE002211460D2000F03F
:1031B800F3FD0D2000F028FE00221146102000F03B
:1031C800EBFD102000F020FE00221146112000F037
:1031D800E3FD112000F018FE03B05DF804FB00BF0A
:1031E800001002402DE9F04188B0002404940594B1
:1031F80006940794264B9A6942F020029A619A69CC
:1032080002F020020092009A9A6942F004029A6140
:103218009A6902F004020192019A9A6942F008023E
:103228009A619A6902F008020292029A9A6942F037
:1032380010029A619B6903F010030393039BDFF864
:103248005480224641F63001404601F00BFA124DF7
:10325800224640F20631284601F004FA41F63003CE
:1032680004930127059706940226079604A9404669
:1032780001F0D8F840F206330493059706940796B0
:1032880004A9284601F0CEF808B0BDE8F08100BFD7
:103298000010024000080140000C014008B50B482E
:1032A8000B4B03600B4B436000238360C3604FF4F8
:1032B8008042026143618361C361036201F0D8F90E
:1032C80000B908BDFFF75AFEFBE700BF300C00202D
:1032D80000540040A086010008B50B480B4B036062
:1032E8000B4B436000238360C3604FF4804202614C
:1032F80043618361C361036201F0BAF900B908BD93
:10330800FFF73CFEFBE700BF840C0020005800409C
:10331800A086010010B588B0002304930593069396
:1033280007930368224A934204D0224A93421FD04B
:1033380008B010BD204CA36943F00803A361A3693A
:1033480003F008030093009BC02304931223059302
:103358000323079304A9194801F064F8E36943F4C7
:103368000013E361E36903F400130193019BDFE7B2
:10337800114CA36943F00803A361A36903F0080390
:103388000293029B4FF44063049312230593032393
:10339800079304A9094801F045F8E36943F4800359
:1033A800E361E36903F480030393039BC0E700BF71
:1033B800005400400058004000100240000C01403A
:1033C80082B00E4B9A6942F001029A619A6902F042
:1033D80001020092009ADA6942F08052DA61DB69F0
:1033E80003F080530193019B054A536823F0E0637F
:1033F80043F00073536002B0704700BF00100240F2
:1034080000000140FEE7FEE7FEE7FEE7FEE7704743
:103418007047704708B500F09BFC08BD08B5024826
:1034280000F08AFE08BD00BF580F002008B502480A
:1034380000F082FE08BD00BF140F002008B5024846
:1034480000F07AFE08BD00BF8C0E002008B50248C7
:1034580000F072FE08BD00BFD00E002008B502487B
:1034680001F040FE08BD00BFB40D002008B50248B9
:1034780002F0C4FC08BD00BF9C0F002008B502483C
:1034880002F0BCFC08BD00BFE40F0020012070471B
:1034980008B502F0E1FE162303604FF0FF3008BDC7
:1034A80008B54FF0FF31FFF7F3FFFEE770B50C46A4
:1034B8001646002506E0AFF30080214601F8010B0F
:1034C80001350C46B542F6DB304670BD70B50C468A
:1034D8001646002504E014F8010BAFF3008001350F
:1034E800B542F8DB304670BD4FF0FF3070474FF4FF
:1034F80000534B6000207047012070470020704740
:1035080010B503460C4A0D490D48006840B10C48F7
:1035180000680344521A934206D8094A136010BD42
:103528000748084C0460F2E702F096FE0C2303609B
:103538004FF0FF30F3E700BF00C000200004000098
:10354800D80C0020781000207047000000B58DB01E
:103558002422002103A802F0A9FE0023019302936C
:103568001248134A0260436083604FF6FF72C260DC
:103578000361436183610323039301230593099343
:1035880003A901F011FF50B900230193029301A987
:10359800064802F085F928B90DB05DF804FBFFF77D
:1035A800EDFCF1E7FFF7EAFCF6E700BFDC0C0020D2
:1035B800002C014000B58DB02422002103A802F0A0
:1035C80075FE00230193029312484FF08042026077
:1035D800436083604FF6FF72C26003618361032317
:1035E800039301230593099303A901F0DDFE50B964
:1035F80000230193029301A9064802F051F928B962
:103608000DB05DF804FBFFF7B9FCF1E7FFF7B6FC76
:10361800F6E700BF240D002000B58DB0242200215C
:1036280003A802F043FE0023019302931148124AB3
:103638000260436083604FF6FF72C260036183617A
:103648000323039301230593099303A901F0ACFE17
:1036580050B900230193029301A9064802F020F90A
:1036680028B90DB05DF804FBFFF788FCF1E7FFF718
:1036780085FCF6E76C0D00200004004000B587B01B
:103688000023029303930493059300930193154831
:10369800154A026040F2CF224260836040F2E7326E
:1036A800C2600361836101F027FE90B94FF4805333
:1036B800029302A90B4801F085FF68B90023009323
:1036C80001936946074802F0EBF840B907B05DF886
:1036D80004FBFFF753FCE9E7FFF750FCEEE7FFF7C1
:1036E8004DFCF3E7B40D00200008004000B58DB094
:1036F8002422002103A802F0D9FD0023019302939C
:103708001148124A0260436083604FF6FF72C2603C
:10371800036183610323039301230593099303A999
:1037280001F042FE50B900230193029301A9064813
:1037380002F0B6F828B90DB05DF804FBFFF71EFCDF
:10374800F1E7FFF71BFCF6E7FC0D0020000C00403A
:1037580000B58FB000230A930B930C930D93036865
:103768004A4A93420BD0B3F1804F23D0484A934240
:1037780057D0484A93426ED00FB05DF804FB464BD1
:103788009A6942F400629A619A6902F400620192AD
:10379800019A9A6942F004029A619B6903F0040352
:1037A8000293029B4FF440730A930AA93B4800F026
:1037B80039FEE1E703F50433DA6942F00102DA6120
:1037C800DA6902F001020392039A9A6942F004024C
:1037D8009A619A6902F004020492049A9A6942F082
:1037E80008029A619B6903F008030593059B4FF44F
:1037F80000430A930AA9294800F014FE08230A93F3
:1038080000230B930C930AA9254800F00BFE254AC8
:10381800536823F4407343F0E06343F480735360C8
:10382800AAE71D4BDA6942F00202DA61DA6902F0AE
:1038380002020692069A9A6942F004029A619B690A
:1038480003F004030793079BC0230A930AA91348AC
:1038580000F0E8FD90E7104BDA6942F00802DA61FF
:10386800DA6902F008020892089A9A6942F004029A
:103878009A619B6903F004030993099B03230A9344
:103888000AA9064800F0CEFD76E700BF002C0140EB
:1038980000040040000C00400010024000080140F5
:1038A800000C01400000014002680E4B9A4200D013
:1038B800704700B583B003F50233DA6942F00402B9
:1038C800DA61DB6903F004030193019B00221146CE
:1038D8001E2000F061FA1E2000F096FA03B05DF891
:1038E80004FB00BF000800400268094B9A4200D060
:1038F800704782B003F55C439A6942F400529A61BA
:103908009B6903F400530193019B02B0704700BF09
:103918000034014000B587B0002302930393049359
:10392800059302680D4B9A4202D007B05DF804FB7C
:1039380003F55C439A6942F010029A619B6903F0AF
:1039480010030193019B4FF47073029302230393B6
:10395800059302A9024800F065FDE6E7003401403E
:103968000010014010B592B00024109411940994ED
:103978000A940B940C940D940E940F9420222146D3
:1039880001A802F093FC3148314B036047234360A0
:10399800846040F2E733C36004614461846101F0EC
:1039A800D7FC00283CD100231093119310A9274875
:1039B80001F076FF002836D16023099300220A928D
:1039C8000B920C920D920E920F9209A91F4801F0CA
:1039D8007FFD58BB042209A91C4801F079FD40BBB2
:1039E800082209A9194801F073FD28BB0C2209A96E
:1039F800164801F06DFD10BB002301930293039359
:103A0800049305934FF400520692089301A90F48B6
:103A180001F084FFB0B90D48FFF77CFF12B010BD6C
:103A2800FFF7ACFABFE7FFF7A9FAC5E7FFF7A6FA71
:103A3800D0E7FFF7A3FAD3E7FFF7A0FAD6E7FFF737
:103A48009DFAD9E7FFF79AFAE5E700BF440E002090
:103A58000034014008B50A480A4B03604FF4E133CB
:103A6800436000238360C36003610C224261836169
:103A7800C36102F07BF800B908BDFFF77FFAFBE7E6
:103A88009C0F00200044004008B50A480A4B036018
:103A98004FF4FA33436000238360C36003610C2250
:103AA80042618361C36102F061F800B908BDFFF7A4
:103AB80065FAFBE7E40F00200048004070B588B0C5
:103AC8000446002304930593069307930368634A07
:103AD800934204D0624A93425BD008B070BD614BF8
:103AE800DA6942F40032DA61DA6902F400320092EB
:103AF800009A9A6942F004029A619B6903F00403F0
:103B08000193019B04230493022305930323079342
:103B1800554E04A9304600F085FC0823049300257F
:103B28000595069504A9304600F07CFC4F48504B9B
:103B38000360456085608023C360056145618561D8
:103B4800C56100F099F9F0B9484BE3635C624948F4
:103B5800494B036010234360002383608022C260C6
:103B6800036143618361C36100F086F970B9414B19
:103B7800A3635C6200221146262000F00DF926207E
:103B880000F042F9A9E7FFF7F9F9DDE7FFF7F6F9E1
:103B9800EDE7344BDA6942F48022DA61DA6902F43B
:103BA80080220292029A9A6942F010029A619B69F5
:103BB80003F010030393039B4FF4806304930223E1
:103BC8000593032307932D4E04A9304600F02AFCE1
:103BD8004FF40063049300250595069504A9304623
:103BE80000F020FC264A536823F0300343F0E063DA
:103BF80043F0100353602348234B036045608560FE
:103C08008023C360056145618561C56100F034F9B1
:103C1800F0B91C4BE3635C621C481D4B0360102326
:103C28004360002383608022C26003614361836133
:103C3800C36100F021F970B9144BA3635C620022E0
:103C48001146272000F0A8F8272000F0DDF844E707
:103C5800FFF794F9DDE7FFF791F9EDE7004400403D
:103C68000048004000100240000801408C0E00206F
:103C78006C000240D00E002080000240001001407D
:103C880000000140140F002030000240580F0020AF
:103C98001C000240FFF758FC0B480C490C4A002353
:103CA80002E0D458C4500433C4188C42F9D3094AEA
:103CB800094C002301E013600432A242FBD302F056
:103CC800D1FAFFF78FF9704700000020C0090020E3
:103CD800E8CE0008C009002078100020FEE70000A8
:103CE80010B504460E4B18784FF47A73B3FBF0F313
:103CF8000C4A1068B0FBF3F000F094F868B90F2C88
:103D080001D901200AE0002221464FF0FF3000F0DF
:103D180043F8054B1C60002000E0012010BD00BFE7
:103D280008000020040000200C00002008B5074A05
:103D3800136843F010031360032000F01BF80F20F2
:103D4800FFF7CEFFFFF73CFB002008BD0020024034
:103D5800034A1168034B1B780B441360704700BF7C
:103D68002C10002008000020014B1868704700BF85
:103D78002C100020074AD36823F4E0631B041B0CB3
:103D8800000200F4E060034343F0BF6343F40033F0
:103D9800D360704700ED00E000B5194BDB68C3F352
:103DA8000223C3F1070CBCF1040F28BF4FF0040C29
:103DB80003F1040EBEF1060F18D9033B4FF0FF3E86
:103DC8000EFA0CFC21EA0C0199400EFA03F322EAE0
:103DD8000303194300280BDB0901C9B200F1604055
:103DE80000F5614080F800135DF804FB0023E5E767
:103DF80000F00F000901C9B2024B1954F4E700BFE3
:103E080000ED00E014ED00E0002807DB00F01F02E1
:103E1800400901239340024A42F82030704700BF0E
:103E280000E100E00138B0F1807F0BD24FF0E023D1
:103E38005861054AF02182F8231000209861072272
:103E48001A6170470120704700ED00E030B401248A
:103E5800056CAC40C56B6C60046863604368102BEC
:103E680005D0036899600368DA6030BC704703685E
:103E78009A600368D960F8E700283AD010B402467F
:103E880000681D4B984229D81C4B03441C49A1FBD0
:103E980003131B099B0013641A4BD363022382F894
:103EA8002130016821F47F5121F030015368946872
:103EB8002343D468234314692343546923439469EF
:103EC8002343D46923430B430360002090630123F9
:103ED80082F8213082F8200010BC70470A4B034456
:103EE8000749A1FB03131B099B001364074BD3630A
:103EF800D4E70120704700BF07040240F8FFFDBF68
:103F0800CDCCCCCC00000240F8FBFDBF0004024041
:103F180038B5044690F82000012832D0012084F8F2
:103F2800200094F82100C0B2012804D0002384F8AE
:103F38002030022038BD022084F821000020A06330
:103F48002568286820F0010028602046FFF77EFFDA
:103F5800E36A5BB12268136843F00E0313602268BA
:103F6800136843F0010313600020E3E72268136835
:103F780023F0040313602268136843F00A031360F4
:103F8800EDE70220D6E790F82130DBB2022B06D00D
:103F980004238363002380F82030012070470268DF
:103FA800136823F00E0313600268136823F00103FB
:103FB8001360036CC16B012202FA03F34B6080F8B3
:103FC8002120002380F820301846704708B590F863
:103FD8002130DBB2022B03D004238363012008BD08
:103FE8000268136823F00E0313600268136823F055
:103FF8000103136003684C4A93424ED9783A9342BE
:1040080024D01432934230D0143293422FD0143239
:1040180093422FD0143293422FD0143293422FD090
:10402800143293422FD002F5627293422ED014328A
:1040380093422DD0143293422CD01432934202D0A2
:104048004FF4803203E04FF4805200E00122374BF6
:104058005A60012380F82130002380F82030436B18
:10406800002B5ED098470020B9E71022EFE74FF405
:104078008072ECE74FF48052E9E74FF48032E6E7CC
:104088004FF48012E3E74FF08072E0E70122DEE7A9
:104098001022DCE74FF48072D9E7254A934224D0F6
:1040A8001432934225D01432934224D014329342CE
:1040B80024D01432934224D01432934224D01432A0
:1040C800934224D002F56272934223D01432934271
:1040D80022D01432934221D01432934202D04FF4AA
:1040E800803203E04FF4805200E00122114B5A6005
:1040F800AFE71022FAE74FF48072F7E74FF48052E7
:10410800F4E74FF48032F1E74FF48012EEE74FF016
:104118008072EBE70122E9E71022E7E74FF48072AB
:10412800E4E700205BE700BF800002400004024093
:10413800080002400000024038B5C36B1A680468E2
:104148002568016C04238B40134200F09B8015F016
:10415800040F00F09780236813F0200F03D1236821
:1041680023F00403236003689A4A934246D9783AB5
:10417800934224D01432934228D01432934227D049
:104188001432934227D01432934227D014329342E8
:1041980027D01432934227D002F56272934226D078
:1041A8001432934225D01432934224D014329342CD
:1041B80002D04FF4802203E04FF4804200E0042252
:1041C800854B5A60C36A03B1984738BD4022F7E768
:1041D8004FF48062F4E74FF48042F1E74FF4802215
:1041E800EEE74FF48002EBE74FF08062E8E7042245
:1041F800E6E74022E4E74FF48062E1E7774A93423A
:1042080024D01432934225D01432934224D014324D
:10421800934224D01432934224D01432934224D0AF
:104228001432934224D002F56272934223D014329E
:10423800934222D01432934221D01432934202D0B6
:104248004FF4802203E04FF4804200E00422644BE4
:104258005A60B7E74022FAE74FF48062F7E74FF475
:104268008042F4E74FF48022F1E74FF48002EEE752
:104278004FF08062EBE70422E9E74022E7E74FF4DA
:104288008062E4E702238B40134200F0AB8015F014
:10429800020F00F0A780236813F0200F06D12368CF
:1042A80023F00A032360012380F821300368494A78
:1042B80093424BD9783A934224D0143293422DD06A
:1042C800143293422CD0143293422CD0143293429D
:1042D8002CD0143293422CD0143293422CD002F5B5
:1042E800627293422BD0143293422AD014329342F2
:1042F80029D01432934202D04FF4003203E04FF435
:10430800005200E00222344B5A60002380F820302B
:10431800836A002B3FF459AF984756E72022F2E70B
:104328004FF40072EFE74FF40052ECE74FF400321D
:10433800E9E74FF40012E6E74FF00072E3E70222E4
:10434800E1E72022DFE74FF40072DCE7234A9342DB
:1043580024D01432934225D01432934224D01432FC
:10436800934224D01432934224D01432934224D05E
:104378001432934224D002F56272934223D014324D
:10438800934222D01432934221D01432934202D065
:104398004FF4003203E04FF4005200E00222104BC9
:1043A8005A60B2E72022FAE74FF40072F7E74FF4B9
:1043B8000052F4E74FF40032F1E74FF40012EEE751
:1043C8004FF00072EBE70222E9E72022E7E74FF41B
:1043D8000072E4E780000240000402400800024046
:1043E80000000240082303FA01F111423FF4EDAE48
:1043F80015F0080F3FF4E9AE236823F00E0323609D
:10440800026CC16B012303FA02F24A60836380F8ED
:104418002130002380F82030036B002B3FF4D5AE09
:104428009847D2E670B582B00024A446B0E0874D24
:10443800AA4210D007D9864DAA420CD005F580357E
:10444800AA4208D013E0A5F58015AA4203D005F5C5
:104458007025AA4207D18A68002A62D0012A5BD057
:104468004361082403E0A5F58015AA42F3D0BEF104
:10447800FF0F58D80646BEF1FF0F56D84FEA8C02F8
:1044880033680F25954023EA050304FA02F2134323
:1044980033604B6813F0805F78D06E4B9A6942F0B6
:1044A80001029A619B6903F001030193019B4FEAA2
:1044B8009C02951C684B53F825600CF003039D0083
:1044C8000F23AB4026EA0306644B984233D003F52A
:1044D8008063984200F0988003F58063984200F06A
:1044E800958003F58063984200F0928003F580631D
:1044F800984200F08F8003F58063984219D0062314
:104508001AE0CC68B3E7CC680434B0E7CC68083468
:10451800ADE7CC680C34AAE703610824A7E70024B8
:10452800A5E70424A3E7061DA5E7ACF1080292005D
:10453800A6E7052300E00023AB4033430232464D93
:1045480045F822304B6813F4801F65D0444A9368BD
:1045580043EA0E0393604B6813F4001F62D0404A8D
:10456800D36843EA0E03D3604B6813F4003F5FD06F
:104578003B4A536843EA0E0353604B6813F4803F89
:104588005CD0374A136843EA0E0313600CF1010C40
:104598000A6832FA0CF357D0012303FA0CF302EA43
:1045A800030E33EA0202F1D14A68122A3FF63FAFFE
:1045B800122A3FF65CAF01A555F822F05F440008C7
:1045C8000B450008154500082745000877440008F2
:1045D80077440008774400087744000877440008C7
:1045E80077440008774400087744000877440008B7
:1045F80077440008774400087744000877440008A7
:104608000F4500081B450008012395E7022393E79F
:10461800032391E704238FE7114A936823EA0E03E3
:10462800936098E70E4AD36823EA0E03D3609BE7AA
:104638000B4A536823EA0E0353609EE7084A13683F
:1046480023EA0E031360A1E702B070BD0000221038
:104658000000311000100240000001400008014035
:10466800000401400AB10161704709040161704703
:10467800002800F0CC8070B5044690F83D30002B3F
:1046880077D0242384F83D302268136823F001038F
:1046980013602268136843F40043136022681368A8
:1046A80023F40043136000F0C5FB62685A4B9A423A
:1046B80064D85A4B98428CBF00230123002B40F04A
:1046C800A8805749A1FB00318B0C25686A6822F045
:1046D8003F0242EA91426A6021680A6A22F03F0278
:1046E80066684D4DAE424FD8013313430B622168C3
:1046F800CA6922F44F4222F0FF026668464B9E4286
:104708004CD8431E7600B3FBF6F3013340F6FC7039
:10471800034278D0C3F30B031343CB6121680B68C2
:1047280023F0C003E269206A024313430B60216847
:104738008B6823F4034323F0FF032269E0680243F4
:1047480013438B602168CB6823F0FF036269A0697B
:1047580002431343CB602268136843F001031360DC
:1047680000202064202384F83D30206384F83E0034
:1047780070BD80F83C30FEF7CDFD82E7294B9842AA
:104788008CBF0023012399E74FF4967505FB03F3CB
:10479800254DA5FB03539B090133A6E7A368BBB9C5
:1047A800451E06EB460CB5FBFCF50135C5F30B05BC
:1047B800B5FA85F56D0945BBC3B9013806EB460363
:1047C800B0FBF3F30133C3F30B0343F40043A3E754
:1047D800451E06EB860C0CEB8C0CB5FBFCF5013585
:1047E800C5F30B05B5FA85F56D09E4E7013806EB65
:1047F800860303EB8303B0FBF3F30133C3F30B032B
:1048080043F4404388E7042386E7012384E7012033
:1048180070470120ACE700BFA08601007F841E001E
:1048280083DE1B43FF083D00D34D621082B0084B66
:104838001B68084AA2FB03235B0A00FB03F30193EE
:1048480000BF019B5A1E0192002BF9D102B070479C
:1048580004000020D34D6210002800F0F18170B5EB
:1048680082B00446036813F0010F2CD0994B5B68A3
:1048780003F00C03042B1DD0964B5B6803F00C036C
:10488800082B12D06368B3F5803F41D0002B55D177
:1048980003F1804303F504331A6822F480321A6066
:1048A8001A6822F480221A6037E08A4B5B6813F496
:1048B800803FE7D0874B1B6813F4003F03D0636841
:1048C800002B00F0BF81236813F0020F75D0814BD5
:1048D8005B6813F00C0F5FD07E4B5B6803F00C0332
:1048E800082B54D02369002B00F08A807A4B0122D0
:1048F8001A60FFF739FA0546764B1B6813F0020F6A
:1049080075D1FFF731FA401B0228F5D903209EE143
:10491800704A136843F480331360636843B3FFF746
:1049280023FA05466B4B1B6813F4003FCBD1FFF706
:104938001BFA401B6428F5D9032088E1B3F5A02FA2
:1049480009D0644B1A6822F480321A601A6822F47B
:1049580080221A60E1E703F18043A3F53C331A682B
:1049680042F480221A601A6842F480321A60D4E74E
:10497800FFF7FAF90546574B1B6813F4003FA2D01E
:10498800FFF7F2F9401B6428F5D903205FE1514B8A
:104998005B6813F4803FA5D14E4B1B6813F0020FE0
:1049A80003D02369012B40F04F814A4A136823F052
:1049B800F803616943EAC1031360236813F0080F21
:1049C80033D0A369002B5CD0434B0122C3F8802469
:1049D800FFF7CAF905463F4B5B6A13F0020F21D176
:1049E800FFF7C2F9401B0228F5D903202FE1394A05
:1049F800136823F0F803616943EAC1031360DCE735
:104A0800354B00221A60FFF7AFF90546314B1B689A
:104A180013F0020FD1D0FFF7A7F9401B0228F5D9F0
:104A2800032014E10120FFF701FF236813F0040FAE
:104A380000F09680274BDB6913F0805F34D1254B5B
:104A4800DA6942F08052DA61DB6903F0805301933E
:104A5800019B0125214B1B6813F4807F26D0E36856
:104A6800012B3DD0002B53D103F1804303F50433D0
:104A78001A6A22F001021A621A6A22F004021A6201
:104A880033E0154B0022C3F88024FFF76DF9054683
:104A9800104B5B6A13F0020FC7D0FFF765F9401B94
:104AA8000228F5D90320D2E00025D3E70B4A136882
:104AB80043F480731360FFF757F90646074B1B68EA
:104AC80013F4807FCBD1FFF74FF9801B6428F5D909
:104AD8000320BCE000100240000042420070004089
:104AE8005F4A136A43F001031362E36833B3FFF7C5
:104AF8003BF906465A4B1B6A13F0020F2FD1FFF7FA
:104B080033F9801B41F288339842F3D903209EE0A1
:104B1800052B09D0524B1A6A22F001021A621A6A4E
:104B280022F004021A62E0E74D4B1A6A42F00402CE
:104B38001A621A6A42F001021A62D6E7FFF714F9FC
:104B48000646474B1B6A13F0020F08D0FFF70CF913
:104B5800801B41F288339842F3D9032077E0E5B906
:104B6800E369002B72D03E4A526802F00C02082A10
:104B780056D0022B17D03B4B00221A66FFF7F4F8E9
:104B88000446374B1B6813F0007F47D0FFF7ECF85B
:104B9800001B0228F5D9032059E0314AD36923F0D4
:104BA8008053D361DCE72F4B00221A66FFF7DCF84D
:104BB80005462B4B1B6813F0007F06D0FFF7D4F88F
:104BC800401B0228F5D9032041E0236AB3F5803F52
:104BD8001AD023494B6823F47413226A606A02438B
:104BE80013434B601F4B01221A66FFF7BDF80446BA
:104BF8001B4B1B6813F0007F0ED1FFF7B5F8001BA5
:104C08000228F5D9032022E0154A536823F400331B
:104C1800A1680B435360DCE7002018E0002016E091
:104C2800012B16D00E4B5B6803F48031226A914247
:104C380011D103F47013626A93420ED1002006E08A
:104C480001207047012002E0012000E0002002B0AE
:104C580070BD0120FBE70120F9E70120F7E700BF5D
:104C680000100240000042420F4B5B6803F00C0248
:104C7800082A01D00D487047C3F383420C49885C69
:104C880013F4803F0BD0084B5B68C3F34043094AD9
:104C9800D35C064A02FB00F0B0FBF3F07047064B0A
:104CA80003FB00F0704700BF0010024000127A00BA
:104CB80034C9000844C9000800093D00002800F074
:104CC800A08070B50D460446524B1B6803F00703DD
:104CD8008B420BD24F4A136823F007030B43136030
:104CE800136803F007038B4240F08D80236813F0AC
:104CF800020F17D013F0040F04D0474A536843F447
:104D0800E0635360236813F0080F04D0424A5368E5
:104D180043F460535360404A536823F0F003A1689A
:104D28000B435360236813F0010F31D06368012BE4
:104D380020D0022B25D0384A126812F0020F64D016
:104D480035494A6822F0030213434B60FFF70CF819
:104D58000646314B5B6803F00C036268B3EB820FC5
:104D680016D0FFF701F8801B41F288339842F0D93A
:104D7800032045E0284A126812F4003FE0D10120E0
:104D88003EE0254A126812F0007FD9D1012037E0B1
:104D9800204B1B6803F00703AB420AD91D4A13686E
:104DA80023F007032B431360136803F00703AB4298
:104DB8002DD1236813F0040F06D0174A536823F443
:104DC800E063E1680B435360236813F0080F07D0D2
:104DD800114A536823F46053216943EAC1035360BD
:104DE800FFF742FF0C4B5B68C3F303130B4AD35C1A
:104DF800D8400B4B18600B4B1868FEF771FF00206A
:104E080070BD012070470120FAE70120F8E7012072
:104E1800F6E700BF00200240001002401CC900084D
:104E2800040000200C000020014B1868704700BFE8
:104E38000400002008B5FFF7F7FF044B5B68C3F3D5
:104E48000223034AD35CD84008BD00BF00100240CB
:104E58002CC9000808B5FFF7E7FF044B5B68C3F3EC
:104E6800C223034AD35CD84008BD00BF00100240EB
:104E78002CC9000830B4036A026A22F001020262F7
:104E88004268846924F073040D682C4323F0020CF3
:104E98008B6843EA0C03104DA84203D005F5006562
:104EA800A84205D123F00803CD682B4323F004035F
:104EB800094DA84203D005F50065A84205D122F4A2
:104EC80040724D692A438D692A43426084614A6869
:104ED8004263036230BC7047002C014030B4036A5F
:104EE800026A22F4807202624268C46924F0730C78
:104EF8000C6844EA0C0523F400738C6843EA042325
:104F0800114CA04203D004F50064A04206D123F45A
:104F18000063CC6843EA042323F480630A4CA0426C
:104F280003D004F50064A04207D122F440524C6932
:104F380042EA04128C6942EA04124260C5614A6876
:104F4800C263036230BC7047002C014030B4036A6E
:104F5800026A22F4805202624468C26922F4E6427C
:104F68000D6842EA052223F400538D6843EA0533AD
:104F7800094DA84203D005F50065A84204D124F4E0
:104F880080444D6944EA85144460C2614A680264F9
:104F9800036230BC704700BF002C014010B4036AA4
:104FA800046A24F001040462846924F0F00C4CEAD9
:104FB800021223F00A030B438261036210BC70479C
:104FC80010B4036A046A24F010040462846924F4A7
:104FD800704C4CEA023223F0A00343EA01138261C9
:104FE800036210BC7047836823F070030B4343F0DF
:104FF800070383607047000090F83D30DBB2012B57
:105008002AD1022380F83D300368154A934218D00C
:1050180002F50062934214D0B3F1804F11D0A2F58B
:10502800983293420DD002F58062934209D002F57E
:105038008062934205D01A6842F001021A6000208B
:1050480070479A6802F00702062A07D01A6842F0E9
:1050580001021A6000207047012070470020704745
:10506800002C014090F83D30DBB2012B2FD10223F8
:1050780080F83D300268D36843F00103D3600368C9
:10508800154A934218D002F50062934214D0B3F146
:10509800804F11D0A2F5983293420DD002F580626C
:1050A800934209D002F58062934205D01A6842F013
:1050B80001021A60002070479A6802F00702062A67
:1050C80007D01A6842F001021A60002070470120D8
:1050D80070470020704700BF002C014070477047A0
:1050E8007047704710B5044603681A6912F0020F3A
:1050F80011D0DA6812F0020F0DD06FF002021A61B7
:105108000123037703689B6913F0030F70D0FFF73F
:10511800E6FF0023237723681A6912F0040F12D0E0
:10512800DA6812F0040F0ED06FF004021A6102233D
:10513800237723689B6913F4407F5FD02046FFF7ED
:10514800CEFF0023237723681A6912F0080F12D0C4
:10515800DA6812F0080F0ED06FF008021A61042303
:1051680023772368DB6913F0030F4ED02046FFF73F
:10517800B6FF0023237723681A6912F0100F12D0A4
:10518800DA6812F0100F0ED06FF010021A610823BF
:1051980023772368DB6913F4407F3DD02046FFF76F
:1051A8009EFF0023237723681A6912F0010F03D0AA
:1051B800DA6812F0010F36D123681A6912F0800FED
:1051C80003D0DA6812F0800F34D123681A6912F01C
:1051D800400F03D0DA6812F0400F32D123681A6901
:1051E80012F0200F03D0DA6812F0200F30D110BD72
:1051F800FFF774FF2046FFF773FF8AE72046FFF7A3
:105208006DFF2046FFF76CFF9BE72046FFF766FF20
:105218002046FFF765FFACE72046FFF75FFF204613
:10522800FFF75EFFBDE76FF001021A612046FDF748
:1052380061F8C1E76FF080021A61204600F098FB20
:10524800C3E76FF040021A612046FFF74AFFC5E73F
:105258006FF020021A61204600F089FBC7E70000C2
:105268000368244A904212D002F5006290420ED0A0
:10527800B0F1804F0BD0A2F59832904207D002F5DA
:105288008062904203D002F58062904203D123F0FD
:1052980070034A681343174A904212D002F500621D
:1052A80090420ED0B0F1804F0BD0A2F598329042C8
:1052B80007D002F58062904203D002F580629042E6
:1052C80003D123F44073CA68134323F080034A6967
:1052D800134303608B68C3620B688362054B984273
:1052E80003D003F50063984201D10B6903630123DE
:1052F80043617047002C014040B310B5044690F854
:105308003D30F3B1022384F83D30214651F8040BB7
:10531800FFF7A6FF012384F8463084F83E3084F86E
:105328003F3084F8403084F8413084F8423084F8C3
:10533800433084F8443084F8453084F83D30002008
:1053480010BD80F83C30FEF7AFFADBE7012070476C
:1053580040B310B5044690F83D30F3B1022384F809
:105368003D30214651F8040BFFF77AFF012384F8FA
:10537800463084F83E3084F83F3084F8403084F872
:10538800413084F8423084F8433084F8443084F85B
:10539800453084F83D30002010BD80F83C30FEF7E1
:1053A800A3FADBE701207047002857D070B50D46F7
:1053B800044690F83D30002B4BD0022384F83D3052
:1053C8002268936823F4804323F0070393602146FF
:1053D80051F8040BFFF744FF21688A688B690E6A4D
:1053E8002868104323F4407C2CF0030CAA68AB69AE
:1053F80042EA032343EA0C0323F47C4323F0FC032F
:10540800EA69D5F80CC04CEA022C4CEA030C2A6A6B
:1054180013032A6943EA021343EA0C0326F022061F
:105428006A686D6942EA05123243886021688B61B7
:1054380023681A62012384F8463084F83E3084F8E1
:105448003F3084F8423084F8433084F83D300020FF
:1054580070BD80F83C30FEF77BF9AEE7012070475D
:1054680030B4036A026A22F0100202624468826958
:1054780022F4E6420D6842EA052223F020038D68F3
:1054880043EA0513114DA84203D005F50065A8426B
:1054980006D123F08003CD6843EA051323F04003C7
:1054A8000A4DA84203D005F50065A84207D124F4A7
:1054B80040644D6944EA85048D6944EA8504446082
:1054C80082614A688263036230BC7047002C0140E5
:1054D80038B590F83C30012B66D004460D460123C0
:1054E80080F83C300C2A5AD8DFE802F0075959599D
:1054F8001B5959593059595944000068FFF7BAFCEB
:105508002268936943F0080393612268936923F042
:10551800040393612268936929690B43936100200E
:105528003EE00068FFF79CFF2268936943F400633C
:1055380093612268936923F4806393612268936975
:10554800296943EA01239361002029E00068FFF7F5
:10555800C5FC2268D36943F00803D3612268D36984
:1055680023F00403D3612268D36929690B43D3610B
:10557800002015E00068FFF7E9FC2268D36943F4CE
:105588000063D3612268D36923F48063D3612268FE
:10559800D369296943EA0123D361002000E001208F
:1055A800002384F83C3038BD0220FCE710B484683E
:1055B80024F47F4C42EA03220A4342EA0C02826046
:1055C80010BC704790F83C30012B78D010B50446D9
:1055D800012380F83C30022380F83D30026893684C
:1055E80023F47F4323F0770393600B68602B4CD040
:1055F80029D8402B54D00CD9502B22D1CA684968DD
:105608000068FFF7CBFC50212068FFF7ECFC002076
:1056180005E0202B0DD009D9302B0AD00120012319
:1056280084F83D30002384F83C3010BD0BB1102BBA
:1056380005D119462068FFF7D6FC0020EFE70120C6
:10564800EDE70120EBE7B3F5805F34D0B3F5005FF9
:105658000CD1CB684A6889680068FFF7A7FF226801
:10566800936843F4804393600020D8E7702B24D1DB
:10567800CB684A6889680068FFF798FF22689368D2
:1056880043F0770393600020C9E7CA684968006857
:10569800FFF796FC60212068FFF7A5FC0020BEE715
:1056A800CA6849680068FFF779FC40212068FFF75D
:1056B8009AFC0020B3E70020B1E70120AFE7022001
:1056C800704701F01F01012303FA01FC036A23EA72
:1056D8000C030362036A02FA01F10B430362704789
:1056E80010B50446084600293AD194F83E30DBB29A
:1056F800013B18BF0123002B66D1002849D10223A2
:1057080084F83E30012201462068FFF7DAFF23685B
:105718002F4A934203D002F50062934203D15A6C98
:1057280042F400425A642368294A934241D002F560
:10573800006293423DD0B3F1804F3AD0A2F598323F
:10574800934236D002F58062934232D002F58062ED
:1057580093422ED01A6842F001021A60002032E00B
:10576800042908D008290DD094F84130DBB2013B58
:1057780018BF0123BFE794F83F30DBB2013B18BFE5
:105788000123B8E794F84030DBB2013B18BF01238E
:10579800B1E7042805D0082807D0022384F841304F
:1057A800B0E7022384F83F30ACE7022384F84030A6
:1057B800A8E79A6802F00702062A07D01A6842F09A
:1057C80001021A60002010BD0120FCE70020FAE762
:1057D800002C014038B5044690F83E00C0B294F859
:1057E8003F3094F84220D2B294F843C00D46B1B984
:1057F800012849D1012A48D1022384F83E3084F88F
:1058080042307DB3042D39D0012200212068FFF7F2
:1058180058FF012204212068FFF753FF27E0DBB27D
:105828005FFA8CFC042912D0012833D1012B2CD12A
:10583800012A31D1BCF1010F30D1022384F83E3066
:1058480084F83F3084F8423084F84330D9E7012B9C
:105858001CD1BCF1010F1BD1022384F83F3084F81E
:105868004330CEE7012200212068FFF72AFF226893
:10587800136843F001031360002006E001220421AD
:105888002068FFF71EFFF2E7012038BD0120FCE782
:105898001846FAE70120F8E71846F6E71046F4E755
:1058A80090F83C30012B34D010B4012380F83C3000
:1058B800022380F83D3003685A689C6822F0700C17
:1058C8000A6842EA0C025A600368134A934212D0EB
:1058D80002F5006293420ED0B3F1804F0BD0A2F5CF
:1058E8009832934207D002F58062934203D002F5C2
:1058F8008062934204D124F080044A6814439C6077
:10590800012380F83D30002380F83C30184610BC55
:1059180070470220704700BF002C014090F83C30CF
:10592800012B22D0012380F83C30CB6823F440734C
:105938008A68134323F480634A68134323F400639B
:105948000A68134323F480530A69134323F400536A
:105958004A69134323F48043CA69134302685364B2
:10596800002380F83C301846704702207047704783
:105978007047026802F10C0353E8003F23F0C003AC
:105988000C3242E800310029F3D1202380F841305D
:105998007047026802F10C0353E8003F23F4907348
:1059A8000C3242E800310029F3D1026802F11403F5
:1059B80053E8003F23F00103143242E80031002984
:1059C800F3D1036B012B05D0202380F8423000234C
:1059D80003637047026802F10C0353E8003F23F0A9
:1059E80010030C3242E800310029F3D1ECE790F8BB
:1059F8004130DBB2212B01D0022070478368B3F518
:105A0800805F17D0036A5A1C02621A7803685A60CA
:105A1800C38C9BB2013B9BB2C3844BB90268D36869
:105A280023F08003D3600268D36843F04003D36057
:105A3800002070470369002BE4D1036A1B880268C1
:105A4800C3F308035360036A02330362E0E700000C
:105A580010B504460268136923F44053C1680B4328
:105A6800136183680269134342691A430168CB686A
:105A780023F4B05323F00C031343CB60026853693B
:105A880023F4407381690B4353610268134B9A42B4
:105A980020D0FFF7CFF9024602EB820202EB820226
:105AA80063689B00B2FBF3F20D48A0FB0231490981
:105AB800642303FB11231B013233A0FB03235B097F
:105AC80003F0F00202EB011203F00F032168134404
